{
  "address": "0x610178dA211FEF7D417bC0e6FeD39F05609AD788",
  "abi": [
    {
      "inputs": [
        {
          "internalType": "contract ISuperfluid",
          "name": "host",
          "type": "address"
        },
        {
          "internalType": "contract ISuperToken",
          "name": "tokenAddress",
          "type": "address"
        },
        {
          "internalType": "contract ISwapRouter",
          "name": "_swapRouter",
          "type": "address"
        },
        {
          "internalType": "uint256",
          "name": "interval",
          "type": "uint256"
        },
        {
          "internalType": "contract ISuperToken",
          "name": "fDAIAddress",
          "type": "address"
        }
      ],
      "stateMutability": "nonpayable",
      "type": "constructor"
    },
    {
      "inputs": [],
      "name": "SuperfluidStream__FlowToTheReceiverExist",
      "type": "error"
    },
    {
      "inputs": [
        {
          "internalType": "address",
          "name": "sender",
          "type": "address"
        },
        {
          "internalType": "uint256",
          "name": "superAmount",
          "type": "uint256"
        }
      ],
      "name": "SuperfluidStream__NotEnoughSuperToken",
      "type": "error"
    },
    {
      "anonymous": false,
      "inputs": [
        {
          "indexed": false,
          "internalType": "address",
          "name": "sender",
          "type": "address"
        },
        {
          "indexed": false,
          "internalType": "uint256",
          "name": "downgradeAmount",
          "type": "uint256"
        }
      ],
      "name": "DowngradeSuccess",
      "type": "event"
    },
    {
      "anonymous": false,
      "inputs": [
        {
          "indexed": false,
          "internalType": "address",
          "name": "sender",
          "type": "address"
        },
        {
          "indexed": false,
          "internalType": "address",
          "name": "receiver",
          "type": "address"
        },
        {
          "indexed": false,
          "internalType": "int96",
          "name": "flowRatePerMonth",
          "type": "int96"
        }
      ],
      "name": "FlowCreated",
      "type": "event"
    },
    {
      "anonymous": false,
      "inputs": [
        {
          "indexed": false,
          "internalType": "address",
          "name": "sender",
          "type": "address"
        },
        {
          "indexed": false,
          "internalType": "address",
          "name": "receiver",
          "type": "address"
        }
      ],
      "name": "FlowDeleted",
      "type": "event"
    },
    {
      "anonymous": false,
      "inputs": [],
      "name": "SwapSuccess",
      "type": "event"
    },
    {
      "anonymous": false,
      "inputs": [
        {
          "indexed": false,
          "internalType": "address",
          "name": "sender",
          "type": "address"
        },
        {
          "indexed": false,
          "internalType": "uint256",
          "name": "upgradeAmount",
          "type": "uint256"
        }
      ],
      "name": "UpgradeSuccess",
      "type": "event"
    },
    {
      "stateMutability": "payable",
      "type": "fallback"
    },
    {
      "inputs": [],
      "name": "POOL_FEE",
      "outputs": [
        {
          "internalType": "uint24",
          "name": "",
          "type": "uint24"
        }
      ],
      "stateMutability": "view",
      "type": "function"
    },
    {
      "inputs": [],
      "name": "cfaLib",
      "outputs": [
        {
          "internalType": "contract ISuperfluid",
          "name": "host",
          "type": "address"
        },
        {
          "internalType": "contract IConstantFlowAgreementV1",
          "name": "cfa",
          "type": "address"
        }
      ],
      "stateMutability": "view",
      "type": "function"
    },
    {
      "inputs": [
        {
          "internalType": "bytes",
          "name": "",
          "type": "bytes"
        }
      ],
      "name": "checkUpkeep",
      "outputs": [
        {
          "internalType": "bool",
          "name": "upkeepNeeded",
          "type": "bool"
        },
        {
          "internalType": "bytes",
          "name": "",
          "type": "bytes"
        }
      ],
      "stateMutability": "view",
      "type": "function"
    },
    {
      "inputs": [
        {
          "internalType": "address",
          "name": "receiver",
          "type": "address"
        },
        {
          "internalType": "int96",
          "name": "flowRatePerMonth",
          "type": "int96"
        }
      ],
      "name": "createFlow",
      "outputs": [],
      "stateMutability": "nonpayable",
      "type": "function"
    },
    {
      "inputs": [
        {
          "internalType": "address",
          "name": "receiver",
          "type": "address"
        }
      ],
      "name": "deleteFlow",
      "outputs": [],
      "stateMutability": "nonpayable",
      "type": "function"
    },
    {
      "inputs": [
        {
          "internalType": "uint256",
          "name": "wad",
          "type": "uint256"
        }
      ],
      "name": "downgradeMATICx",
      "outputs": [],
      "stateMutability": "nonpayable",
      "type": "function"
    },
    {
      "inputs": [],
      "name": "enterSwap",
      "outputs": [],
      "stateMutability": "nonpayable",
      "type": "function"
    },
    {
      "inputs": [],
      "name": "getDuration",
      "outputs": [
        {
          "internalType": "uint256",
          "name": "",
          "type": "uint256"
        }
      ],
      "stateMutability": "view",
      "type": "function"
    },
    {
      "inputs": [],
      "name": "getInterval",
      "outputs": [
        {
          "internalType": "uint256",
          "name": "",
          "type": "uint256"
        }
      ],
      "stateMutability": "view",
      "type": "function"
    },
    {
      "inputs": [],
      "name": "getLastTimeStamp",
      "outputs": [
        {
          "internalType": "uint256",
          "name": "",
          "type": "uint256"
        }
      ],
      "stateMutability": "view",
      "type": "function"
    },
    {
      "inputs": [
        {
          "internalType": "address",
          "name": "receiver",
          "type": "address"
        }
      ],
      "name": "getMATICxBalance",
      "outputs": [
        {
          "internalType": "uint256",
          "name": "",
          "type": "uint256"
        }
      ],
      "stateMutability": "view",
      "type": "function"
    },
    {
      "inputs": [],
      "name": "getSwapFrom",
      "outputs": [
        {
          "internalType": "address",
          "name": "",
          "type": "address"
        }
      ],
      "stateMutability": "view",
      "type": "function"
    },
    {
      "inputs": [],
      "name": "getSwapState",
      "outputs": [
        {
          "internalType": "enum SuperfluidStream.SwapState",
          "name": "",
          "type": "uint8"
        }
      ],
      "stateMutability": "view",
      "type": "function"
    },
    {
      "inputs": [],
      "name": "getSwapTime",
      "outputs": [
        {
          "internalType": "uint256",
          "name": "",
          "type": "uint256"
        }
      ],
      "stateMutability": "view",
      "type": "function"
    },
    {
      "inputs": [],
      "name": "getSwapTo",
      "outputs": [
        {
          "internalType": "address",
          "name": "",
          "type": "address"
        }
      ],
      "stateMutability": "view",
      "type": "function"
    },
    {
      "inputs": [],
      "name": "getSwapperSwapAmount",
      "outputs": [
        {
          "internalType": "uint256",
          "name": "",
          "type": "uint256"
        }
      ],
      "stateMutability": "view",
      "type": "function"
    },
    {
      "inputs": [
        {
          "internalType": "bytes",
          "name": "",
          "type": "bytes"
        }
      ],
      "name": "performUpkeep",
      "outputs": [],
      "stateMutability": "nonpayable",
      "type": "function"
    },
    {
      "inputs": [
        {
          "internalType": "uint256",
          "name": "amountIn",
          "type": "uint256"
        },
        {
          "internalType": "address",
          "name": "tokenIn",
          "type": "address"
        },
        {
          "internalType": "address",
          "name": "tokenOut",
          "type": "address"
        },
        {
          "internalType": "uint256",
          "name": "duration",
          "type": "uint256"
        }
      ],
      "name": "swap",
      "outputs": [
        {
          "internalType": "uint256",
          "name": "amountOut",
          "type": "uint256"
        }
      ],
      "stateMutability": "nonpayable",
      "type": "function"
    },
    {
      "inputs": [
        {
          "internalType": "address",
          "name": "receiver",
          "type": "address"
        },
        {
          "internalType": "int96",
          "name": "flowRatePerMonth",
          "type": "int96"
        }
      ],
      "name": "updateFlow",
      "outputs": [],
      "stateMutability": "nonpayable",
      "type": "function"
    },
    {
      "inputs": [],
      "name": "upgradeMATIC",
      "outputs": [],
      "stateMutability": "payable",
      "type": "function"
    },
    {
      "inputs": [
        {
          "internalType": "uint256",
          "name": "fDAIAmountOut",
          "type": "uint256"
        }
      ],
      "name": "withdrawfDAI",
      "outputs": [],
      "stateMutability": "nonpayable",
      "type": "function"
    },
    {
      "stateMutability": "payable",
      "type": "receive"
    }
  ],
  "transactionHash": "0x64442e511d75cb05257feb8ab69ca73215f8ed60e0c4ae641b8cecdfb689019b",
  "args": [
    "0x06B1D212B8da92b83AF328De5eef4E211Da02097",
    "0xd7D06eF74cC5cFd97D38Aa6080A35c509135d40A",
    "0xE592427A0AEce92De3Edee1F18E0157C05861564",
    30,
    "0xDAf76fb164DdBE358E99262331377bd81EB1e05E"
  ],
  "numDeployments": 1,
  "solcInputHash": "b160642fedcdb1ae66e5706fa0f70c28",
  "bytecode": "0x6101006040523480156200001257600080fd5b5060405162002f9b38038062002f9b8339818101604052810190620000389190620003d2565b60016000819055508373ffffffffffffffffffffffffffffffffffffffff1660808173ffffffffffffffffffffffffffffffffffffffff16815250508273ffffffffffffffffffffffffffffffffffffffff1660c08173ffffffffffffffffffffffffffffffffffffffff16815250508160e081815250506002600360006101000a81548160ff02191690836002811115620000d957620000d86200045a565b5b02179055508073ffffffffffffffffffffffffffffffffffffffff1660a08173ffffffffffffffffffffffffffffffffffffffff168152505060405180604001604052808673ffffffffffffffffffffffffffffffffffffffff1681526020018673ffffffffffffffffffffffffffffffffffffffff1663b6d200de7fa9214cc96615e0085d3bb077758db69497dc2dce3b2b1e97bc93c3d18d83efd36040518263ffffffff1660e01b8152600401620001949190620004a4565b602060405180830381865afa158015620001b2573d6000803e3d6000fd5b505050506040513d601f19601f82011682018060405250810190620001d8919062000506565b73ffffffffffffffffffffffffffffffffffffffff16815250600160008201518160000160006101000a81548173ffffffffffffffffffffffffffffffffffffffff021916908373ffffffffffffffffffffffffffffffffffffffff16021790555060208201518160010160006101000a81548173ffffffffffffffffffffffffffffffffffffffff021916908373ffffffffffffffffffffffffffffffffffffffff160217905550905050505050505062000538565b600080fd5b600073ffffffffffffffffffffffffffffffffffffffff82169050919050565b6000620002c18262000294565b9050919050565b6000620002d582620002b4565b9050919050565b620002e781620002c8565b8114620002f357600080fd5b50565b6000815190506200030781620002dc565b92915050565b60006200031a82620002b4565b9050919050565b6200032c816200030d565b81146200033857600080fd5b50565b6000815190506200034c8162000321565b92915050565b60006200035f82620002b4565b9050919050565b620003718162000352565b81146200037d57600080fd5b50565b600081519050620003918162000366565b92915050565b6000819050919050565b620003ac8162000397565b8114620003b857600080fd5b50565b600081519050620003cc81620003a1565b92915050565b600080600080600060a08688031215620003f157620003f06200028f565b5b60006200040188828901620002f6565b955050602062000414888289016200033b565b9450506040620004278882890162000380565b93505060606200043a88828901620003bb565b92505060806200044d888289016200033b565b9150509295509295909350565b7f4e487b7100000000000000000000000000000000000000000000000000000000600052602160045260246000fd5b6000819050919050565b6200049e8162000489565b82525050565b6000602082019050620004bb600083018462000493565b92915050565b6000620004ce82620002b4565b9050919050565b620004e081620004c1565b8114620004ec57600080fd5b50565b6000815190506200050081620004d5565b92915050565b6000602082840312156200051f576200051e6200028f565b5b60006200052f84828501620004ef565b91505092915050565b60805160a05160c05160e0516129f8620005a3600039600081816107b20152610ccc015260008181610897015261095d01526000610e1a01526000818161069501528181610a2e01528181610c4301528181610d4101528181611060015261119301526129f86000f3fe60806040526004361061012e5760003560e01c80638568f0ec116100ab578063b4130f2d1161006f578063b4130f2d146103b9578063bf8d075b146103e2578063c1c244e81461040b578063dd1b9c4a14610436578063f53d93c714610461578063f5e380071461048a57610135565b80638568f0ec146103055780638bf08bb61461033057806391ad27b414610359578063986935ec14610384578063ad2e8c9b1461038e57610135565b806361ba4fb8116100f257806361ba4fb8146101f95780636e04ff0d1461023657806370085be01461027457806373d5f726146102b157806374faa28b146102dc57610135565b80630977482e14610137578063249d6dc714610163578063333003761461018e5780634585e33b146101a557806355c32b4e146101ce57610135565b3661013557005b005b34801561014357600080fd5b5061014c6104b5565b60405161015a929190611c19565b60405180910390f35b34801561016f57600080fd5b50610178610507565b6040516101859190611c5b565b60405180910390f35b34801561019a57600080fd5b506101a3610511565b005b3480156101b157600080fd5b506101cc60048036038101906101c79190611cef565b610545565b005b3480156101da57600080fd5b506101e3610687565b6040516101f09190611c5b565b60405180910390f35b34801561020557600080fd5b50610220600480360381019061021b9190611d7a565b610691565b60405161022d9190611c5b565b60405180910390f35b34801561024257600080fd5b5061025d60048036038101906102589190611ee8565b610734565b60405161026b929190611fcb565b60405180910390f35b34801561028057600080fd5b5061029b60048036038101906102969190612027565b6107ff565b6040516102a89190611c5b565b60405180910390f35b3480156102bd57600080fd5b506102c6610a02565b6040516102d3919061209d565b60405180910390f35b3480156102e857600080fd5b5061030360048036038101906102fe91906120b8565b610a2c565b005b34801561031157600080fd5b5061031a610b3a565b604051610327919061209d565b60405180910390f35b34801561033c57600080fd5b506103576004803603810190610352919061211e565b610b64565b005b34801561036557600080fd5b5061036e610cc8565b60405161037b9190611c5b565b60405180910390f35b61038c610cf0565b005b34801561039a57600080fd5b506103a3610e0e565b6040516103b09190611c5b565b60405180910390f35b3480156103c557600080fd5b506103e060048036038101906103db91906120b8565b610e18565b005b3480156103ee57600080fd5b506104096004803603810190610404919061211e565b610eba565b005b34801561041757600080fd5b506104206110e5565b60405161042d9190611c5b565b60405180910390f35b34801561044257600080fd5b5061044b6110ef565b604051610458919061217c565b60405180910390f35b34801561046d57600080fd5b5061048860048036038101906104839190611d7a565b6110f5565b005b34801561049657600080fd5b5061049f611214565b6040516104ac919061220e565b60405180910390f35b60018060000160009054906101000a900473ffffffffffffffffffffffffffffffffffffffff16908060010160009054906101000a900473ffffffffffffffffffffffffffffffffffffffff16905082565b6000600854905090565b6000600360006101000a81548160ff0219169083600281111561053757610536612197565b5b021790555042600481905550565b600061055f60405180602001604052806000815250610734565b5090506001600860008282546105759190612258565b9250508190555060095460085410156106175780156105eb576105e2600554600660009054906101000a900473ffffffffffffffffffffffffffffffffffffffff16600760009054906101000a900473ffffffffffffffffffffffffffffffffffffffff166009546107ff565b50426004819055505b6001600360006101000a81548160ff0219169083600281111561061157610610612197565b5b02179055505b60095460085403610682576002600360006101000a81548160ff0219169083600281111561064857610647612197565b5b021790555060006008819055507f83ae5d684d4bb83a2df3011813d52adafdf58ac5223cc62c5bb8a773e95328b660405160405180910390a15b505050565b6000600554905090565b60007f000000000000000000000000000000000000000000000000000000000000000073ffffffffffffffffffffffffffffffffffffffff166370a08231836040518263ffffffff1660e01b81526004016106ec919061209d565b602060405180830381865afa158015610709573d6000803e3d6000fd5b505050506040513d601f19601f8201168201806040525081019061072d91906122a1565b9050919050565b600060606000600360009054906101000a900460ff16600281111561075c5761075b612197565b5b600060028111156107705761076f612197565b5b1490506000600360009054906101000a900460ff16600281111561079757610796612197565b5b600160028111156107ab576107aa612197565b5b14905060007f0000000000000000000000000000000000000000000000000000000000000000600454426107df91906122ce565b1015905082806107ec5750815b80156107f55750805b9450505050915091565b60008460058190555083600660006101000a81548173ffffffffffffffffffffffffffffffffffffffff021916908373ffffffffffffffffffffffffffffffffffffffff16021790555082600760006101000a81548173ffffffffffffffffffffffffffffffffffffffff021916908373ffffffffffffffffffffffffffffffffffffffff160217905550816009819055506108bc847f00000000000000000000000000000000000000000000000000000000000000008761122b565b60006040518061010001604052808673ffffffffffffffffffffffffffffffffffffffff1681526020018573ffffffffffffffffffffffffffffffffffffffff168152602001610bb862ffffff1681526020013073ffffffffffffffffffffffffffffffffffffffff16815260200142815260200187815260200160008152602001600073ffffffffffffffffffffffffffffffffffffffff1681525090507f000000000000000000000000000000000000000000000000000000000000000073ffffffffffffffffffffffffffffffffffffffff1663414bf389826040518263ffffffff1660e01b81526004016109b491906123e0565b6020604051808303816000875af11580156109d3573d6000803e3d6000fd5b505050506040513d601f19601f820116820180604052508101906109f791906122a1565b915050949350505050565b6000600660009054906101000a900473ffffffffffffffffffffffffffffffffffffffff16905090565b7f000000000000000000000000000000000000000000000000000000000000000073ffffffffffffffffffffffffffffffffffffffff1663160e8be3826040518263ffffffff1660e01b8152600401610a859190611c5b565b600060405180830381600087803b158015610a9f57600080fd5b505af1158015610ab3573d6000803e3d6000fd5b505050503373ffffffffffffffffffffffffffffffffffffffff166108fc829081150290604051600060405180830381858888f19350505050158015610afd573d6000803e3d6000fd5b507fa164678d0bda664fd1c7e4a07f1e5522d81bc7ab4948de1c5e6065cab7da34903382604051610b2f9291906123fc565b60405180910390a150565b6000600760009054906101000a900473ffffffffffffffffffffffffffffffffffffffff16905090565b80600a60003373ffffffffffffffffffffffffffffffffffffffff1673ffffffffffffffffffffffffffffffffffffffff16815260200190815260200160002060008473ffffffffffffffffffffffffffffffffffffffff1673ffffffffffffffffffffffffffffffffffffffff16815260200190815260200160002060006101000a8154816bffffffffffffffffffffffff0219169083600b0b6bffffffffffffffffffffffff1602179055506000601e6018610e1084610c269190612454565b610c309190612454565b610c3a9190612454565b9050610c8783827f000000000000000000000000000000000000000000000000000000000000000073ffffffffffffffffffffffffffffffffffffffff166113809092919063ffffffff16565b507f69a172371a3ea3c3b6c825bff6fa836c7c5fe25c7df3feedc847d360b010d45a338484604051610cbb939291906124cd565b60405180910390a1505050565b60007f0000000000000000000000000000000000000000000000000000000000000000905090565b610cf8611533565b60003411610d3f5733346040517f16ef74ca000000000000000000000000000000000000000000000000000000008152600401610d369291906123fc565b60405180910390fd5b7f000000000000000000000000000000000000000000000000000000000000000073ffffffffffffffffffffffffffffffffffffffff16637687d19b34306040518363ffffffff1660e01b8152600401610d99919061209d565b6000604051808303818588803b158015610db257600080fd5b505af1158015610dc6573d6000803e3d6000fd5b50505050507fe662f9a037203bb6dc51961c72a83db0a070124d371c582e38e1607ec32e45523334604051610dfc9291906123fc565b60405180910390a1610e0c611582565b565b6000600954905090565b7f000000000000000000000000000000000000000000000000000000000000000073ffffffffffffffffffffffffffffffffffffffff1663a9059cbb33836040518363ffffffff1660e01b8152600401610e739291906123fc565b6020604051808303816000875af1158015610e92573d6000803e3d6000fd5b505050506040513d601f19601f82011682018060405250810190610eb69190612530565b5050565b6000600a60003373ffffffffffffffffffffffffffffffffffffffff1673ffffffffffffffffffffffffffffffffffffffff16815260200190815260200160002060008473ffffffffffffffffffffffffffffffffffffffff1673ffffffffffffffffffffffffffffffffffffffff16815260200190815260200160002060009054906101000a9004600b0b600b0b1315610f81576040517fd49d89c700000000000000000000000000000000000000000000000000000000815260040160405180910390fd5b80600a60003373ffffffffffffffffffffffffffffffffffffffff1673ffffffffffffffffffffffffffffffffffffffff16815260200190815260200160002060008473ffffffffffffffffffffffffffffffffffffffff1673ffffffffffffffffffffffffffffffffffffffff16815260200190815260200160002060006101000a8154816bffffffffffffffffffffffff0219169083600b0b6bffffffffffffffffffffffff1602179055506000601e6018610e10846110439190612454565b61104d9190612454565b6110579190612454565b90506110a483827f000000000000000000000000000000000000000000000000000000000000000073ffffffffffffffffffffffffffffffffffffffff1661158c9092919063ffffffff16565b507f69a172371a3ea3c3b6c825bff6fa836c7c5fe25c7df3feedc847d360b010d45a3384846040516110d8939291906124cd565b60405180910390a1505050565b6000600454905090565b610bb881565b600a60003373ffffffffffffffffffffffffffffffffffffffff1673ffffffffffffffffffffffffffffffffffffffff16815260200190815260200160002060008273ffffffffffffffffffffffffffffffffffffffff1673ffffffffffffffffffffffffffffffffffffffff16815260200190815260200160002060006101000a8154906bffffffffffffffffffffffff02191690556111d730827f000000000000000000000000000000000000000000000000000000000000000073ffffffffffffffffffffffffffffffffffffffff1661173f9092919063ffffffff16565b507f64d675fb197e6c07a8c9890564138535ad877ce2a89cce0d2786490b52ce2801338260405161120992919061255d565b60405180910390a150565b6000600360009054906101000a900460ff16905090565b6000808473ffffffffffffffffffffffffffffffffffffffff1663095ea7b360e01b85856040516024016112609291906123fc565b604051602081830303815290604052907bffffffffffffffffffffffffffffffffffffffffffffffffffffffff19166020820180517bffffffffffffffffffffffffffffffffffffffffffffffffffffffff83818316178352505050506040516112ca91906125c2565b6000604051808303816000865af19150503d8060008114611307576040519150601f19603f3d011682016040523d82523d6000602084013e61130c565b606091505b509150915081801561133a57506000815114806113395750808060200190518101906113389190612530565b5b5b611379576040517f08c379a000000000000000000000000000000000000000000000000000000000815260040161137090612636565b60405180910390fd5b5050505050565b600080600061138e866118f2565b915091508173ffffffffffffffffffffffffffffffffffffffff166339255d5b828373ffffffffffffffffffffffffffffffffffffffff166350209a628a8a8a600067ffffffffffffffff8111156113e9576113e8611dbd565b5b6040519080825280601f01601f19166020018201604052801561141b5781602001600182028036833780820191505090505b5060405160240161142f9493929190612677565b604051602081830303815290604052915060e01b6020820180517bffffffffffffffffffffffffffffffffffffffffffffffffffffffff8381831617835250505050600067ffffffffffffffff81111561148c5761148b611dbd565b5b6040519080825280601f01601f1916602001820160405280156114be5781602001600182028036833780820191505090505b506040518463ffffffff1660e01b81526004016114dd939291906126c3565b6000604051808303816000875af11580156114fc573d6000803e3d6000fd5b505050506040513d6000823e3d601f19601f820116820180604052508101906115259190612778565b506001925050509392505050565b600260005403611578576040517f08c379a000000000000000000000000000000000000000000000000000000000815260040161156f9061280d565b60405180910390fd5b6002600081905550565b6001600081905550565b600080600061159a866118f2565b915091508173ffffffffffffffffffffffffffffffffffffffff166339255d5b828373ffffffffffffffffffffffffffffffffffffffff166362fc305e8a8a8a600067ffffffffffffffff8111156115f5576115f4611dbd565b5b6040519080825280601f01601f1916602001820160405280156116275781602001600182028036833780820191505090505b5060405160240161163b9493929190612677565b604051602081830303815290604052915060e01b6020820180517bffffffffffffffffffffffffffffffffffffffffffffffffffffffff8381831617835250505050600067ffffffffffffffff81111561169857611697611dbd565b5b6040519080825280601f01601f1916602001820160405280156116ca5781602001600182028036833780820191505090505b506040518463ffffffff1660e01b81526004016116e9939291906126c3565b6000604051808303816000875af1158015611708573d6000803e3d6000fd5b505050506040513d6000823e3d601f19601f820116820180604052508101906117319190612778565b506001925050509392505050565b600080600061174d866118f2565b915091508173ffffffffffffffffffffffffffffffffffffffff166339255d5b828373ffffffffffffffffffffffffffffffffffffffff1663b4b333c68a8a8a600067ffffffffffffffff8111156117a8576117a7611dbd565b5b6040519080825280601f01601f1916602001820160405280156117da5781602001600182028036833780820191505090505b506040516024016117ee949392919061282d565b604051602081830303815290604052915060e01b6020820180517bffffffffffffffffffffffffffffffffffffffffffffffffffffffff8381831617835250505050600067ffffffffffffffff81111561184b5761184a611dbd565b5b6040519080825280601f01601f19166020018201604052801561187d5781602001600182028036833780820191505090505b506040518463ffffffff1660e01b815260040161189c939291906126c3565b6000604051808303816000875af11580156118bb573d6000803e3d6000fd5b505050506040513d6000823e3d601f19601f820116820180604052508101906118e49190612778565b506001925050509392505050565b6000807f65599bf746e17a00ea62e3610586992d88101b78eec3cf380706621fb97ea8375491507fb969d79d88acd02d04ed7ee7d43b949e7daf093d363abcfbbc43dfdfd1ce969a549050600073ffffffffffffffffffffffffffffffffffffffff168173ffffffffffffffffffffffffffffffffffffffff1603611afa57600073ffffffffffffffffffffffffffffffffffffffff168273ffffffffffffffffffffffffffffffffffffffff1603611a17578273ffffffffffffffffffffffffffffffffffffffff166320bc44256040518163ffffffff1660e01b8152600401602060405180830381865afa1580156119f0573d6000803e3d6000fd5b505050506040513d601f19601f82011682018060405250810190611a14919061288e565b91505b8173ffffffffffffffffffffffffffffffffffffffff1663b6d200de7fa9214cc96615e0085d3bb077758db69497dc2dce3b2b1e97bc93c3d18d83efd36040518263ffffffff1660e01b8152600401611a70919061290d565b602060405180830381865afa158015611a8d573d6000803e3d6000fd5b505050506040513d601f19601f82011682018060405250810190611ab19190612966565b9050817f65599bf746e17a00ea62e3610586992d88101b78eec3cf380706621fb97ea83755807fb969d79d88acd02d04ed7ee7d43b949e7daf093d363abcfbbc43dfdfd1ce969a555b600073ffffffffffffffffffffffffffffffffffffffff168273ffffffffffffffffffffffffffffffffffffffff1603611b3757611b36612993565b5b600073ffffffffffffffffffffffffffffffffffffffff168173ffffffffffffffffffffffffffffffffffffffff1603611b7457611b73612993565b5b915091565b600073ffffffffffffffffffffffffffffffffffffffff82169050919050565b6000819050919050565b6000611bbe611bb9611bb484611b79565b611b99565b611b79565b9050919050565b6000611bd082611ba3565b9050919050565b6000611be282611bc5565b9050919050565b611bf281611bd7565b82525050565b6000611c0382611bc5565b9050919050565b611c1381611bf8565b82525050565b6000604082019050611c2e6000830185611be9565b611c3b6020830184611c0a565b9392505050565b6000819050919050565b611c5581611c42565b82525050565b6000602082019050611c706000830184611c4c565b92915050565b6000604051905090565b600080fd5b600080fd5b600080fd5b600080fd5b600080fd5b60008083601f840112611caf57611cae611c8a565b5b8235905067ffffffffffffffff811115611ccc57611ccb611c8f565b5b602083019150836001820283011115611ce857611ce7611c94565b5b9250929050565b60008060208385031215611d0657611d05611c80565b5b600083013567ffffffffffffffff811115611d2457611d23611c85565b5b611d3085828601611c99565b92509250509250929050565b6000611d4782611b79565b9050919050565b611d5781611d3c565b8114611d6257600080fd5b50565b600081359050611d7481611d4e565b92915050565b600060208284031215611d9057611d8f611c80565b5b6000611d9e84828501611d65565b91505092915050565b600080fd5b6000601f19601f8301169050919050565b7f4e487b7100000000000000000000000000000000000000000000000000000000600052604160045260246000fd5b611df582611dac565b810181811067ffffffffffffffff82111715611e1457611e13611dbd565b5b80604052505050565b6000611e27611c76565b9050611e338282611dec565b919050565b600067ffffffffffffffff821115611e5357611e52611dbd565b5b611e5c82611dac565b9050602081019050919050565b82818337600083830152505050565b6000611e8b611e8684611e38565b611e1d565b905082815260208101848484011115611ea757611ea6611da7565b5b611eb2848285611e69565b509392505050565b600082601f830112611ecf57611ece611c8a565b5b8135611edf848260208601611e78565b91505092915050565b600060208284031215611efe57611efd611c80565b5b600082013567ffffffffffffffff811115611f1c57611f1b611c85565b5b611f2884828501611eba565b91505092915050565b60008115159050919050565b611f4681611f31565b82525050565b600081519050919050565b600082825260208201905092915050565b60005b83811015611f86578082015181840152602081019050611f6b565b60008484015250505050565b6000611f9d82611f4c565b611fa78185611f57565b9350611fb7818560208601611f68565b611fc081611dac565b840191505092915050565b6000604082019050611fe06000830185611f3d565b8181036020830152611ff28184611f92565b90509392505050565b61200481611c42565b811461200f57600080fd5b50565b60008135905061202181611ffb565b92915050565b6000806000806080858703121561204157612040611c80565b5b600061204f87828801612012565b945050602061206087828801611d65565b935050604061207187828801611d65565b925050606061208287828801612012565b91505092959194509250565b61209781611d3c565b82525050565b60006020820190506120b2600083018461208e565b92915050565b6000602082840312156120ce576120cd611c80565b5b60006120dc84828501612012565b91505092915050565b600081600b0b9050919050565b6120fb816120e5565b811461210657600080fd5b50565b600081359050612118816120f2565b92915050565b6000806040838503121561213557612134611c80565b5b600061214385828601611d65565b925050602061215485828601612109565b9150509250929050565b600062ffffff82169050919050565b6121768161215e565b82525050565b6000602082019050612191600083018461216d565b92915050565b7f4e487b7100000000000000000000000000000000000000000000000000000000600052602160045260246000fd5b600381106121d7576121d6612197565b5b50565b60008190506121e8826121c6565b919050565b60006121f8826121da565b9050919050565b612208816121ed565b82525050565b600060208201905061222360008301846121ff565b92915050565b7f4e487b7100000000000000000000000000000000000000000000000000000000600052601160045260246000fd5b600061226382611c42565b915061226e83611c42565b925082820190508082111561228657612285612229565b5b92915050565b60008151905061229b81611ffb565b92915050565b6000602082840312156122b7576122b6611c80565b5b60006122c58482850161228c565b91505092915050565b60006122d982611c42565b91506122e483611c42565b92508282039050818111156122fc576122fb612229565b5b92915050565b61230b81611d3c565b82525050565b61231a8161215e565b82525050565b61232981611c42565b82525050565b61233881611b79565b82525050565b610100820160008201516123556000850182612302565b5060208201516123686020850182612302565b50604082015161237b6040850182612311565b50606082015161238e6060850182612302565b5060808201516123a16080850182612320565b5060a08201516123b460a0850182612320565b5060c08201516123c760c0850182612320565b5060e08201516123da60e085018261232f565b50505050565b6000610100820190506123f6600083018461233e565b92915050565b6000604082019050612411600083018561208e565b61241e6020830184611c4c565b9392505050565b7f4e487b7100000000000000000000000000000000000000000000000000000000600052601260045260246000fd5b600061245f826120e5565b915061246a836120e5565b92508261247a57612479612425565b5b600160000383147fffffffffffffffffffffffffffffffffffffffff800000000000000000000000831416156124b3576124b2612229565b5b828205905092915050565b6124c7816120e5565b82525050565b60006060820190506124e2600083018661208e565b6124ef602083018561208e565b6124fc60408301846124be565b949350505050565b61250d81611f31565b811461251857600080fd5b50565b60008151905061252a81612504565b92915050565b60006020828403121561254657612545611c80565b5b60006125548482850161251b565b91505092915050565b6000604082019050612572600083018561208e565b61257f602083018461208e565b9392505050565b600081905092915050565b600061259c82611f4c565b6125a68185612586565b93506125b6818560208601611f68565b80840191505092915050565b60006125ce8284612591565b915081905092915050565b600082825260208201905092915050565b7f5341000000000000000000000000000000000000000000000000000000000000600082015250565b60006126206002836125d9565b915061262b826125ea565b602082019050919050565b6000602082019050818103600083015261264f81612613565b9050919050565b600061266182611bc5565b9050919050565b61267181612656565b82525050565b600060808201905061268c6000830187612668565b612699602083018661208e565b6126a660408301856124be565b81810360608301526126b88184611f92565b905095945050505050565b60006060820190506126d86000830186611c0a565b81810360208301526126ea8185611f92565b905081810360408301526126fe8184611f92565b9050949350505050565b600061271b61271684611e38565b611e1d565b90508281526020810184848401111561273757612736611da7565b5b612742848285611f68565b509392505050565b600082601f83011261275f5761275e611c8a565b5b815161276f848260208601612708565b91505092915050565b60006020828403121561278e5761278d611c80565b5b600082015167ffffffffffffffff8111156127ac576127ab611c85565b5b6127b88482850161274a565b91505092915050565b7f5265656e7472616e637947756172643a207265656e7472616e742063616c6c00600082015250565b60006127f7601f836125d9565b9150612802826127c1565b602082019050919050565b60006020820190508181036000830152612826816127ea565b9050919050565b60006080820190506128426000830187612668565b61284f602083018661208e565b61285c604083018561208e565b818103606083015261286e8184611f92565b905095945050505050565b60008151905061288881611d4e565b92915050565b6000602082840312156128a4576128a3611c80565b5b60006128b284828501612879565b91505092915050565b6000819050919050565b6000819050919050565b60008160001b9050919050565b60006128f76128f26128ed846128bb565b6128cf565b6128c5565b9050919050565b612907816128dc565b82525050565b600060208201905061292260008301846128fe565b92915050565b600061293382611d3c565b9050919050565b61294381612928565b811461294e57600080fd5b50565b6000815190506129608161293a565b92915050565b60006020828403121561297c5761297b611c80565b5b600061298a84828501612951565b91505092915050565b7f4e487b7100000000000000000000000000000000000000000000000000000000600052600160045260246000fdfea264697066735822122024cb6145830ca8621f9d328261efcb50568d2e47d0c9aefd1743371b8d5747b764736f6c63430008100033",
  "devdoc": {
    "kind": "dev",
    "methods": {},
    "version": 1
  },
  "userdoc": {
    "kind": "user",
    "methods": {},
    "version": 1
  },
  "storageLayout": {
    "storage": [
      {
        "astId": 68,
        "contract": "contracts/SuperfluidStream.sol:SuperfluidStream",
        "label": "_status",
        "offset": 0,
        "slot": "0",
        "type": "t_uint256"
      },
      {
        "astId": 7989,
        "contract": "contracts/SuperfluidStream.sol:SuperfluidStream",
        "label": "cfaLib",
        "offset": 0,
        "slot": "1",
        "type": "t_struct(InitData)367_storage"
      },
      {
        "astId": 8005,
        "contract": "contracts/SuperfluidStream.sol:SuperfluidStream",
        "label": "s_swapState",
        "offset": 0,
        "slot": "3",
        "type": "t_enum(SwapState)7949"
      },
      {
        "astId": 8012,
        "contract": "contracts/SuperfluidStream.sol:SuperfluidStream",
        "label": "lastTimeStamp",
        "offset": 0,
        "slot": "4",
        "type": "t_uint256"
      },
      {
        "astId": 8014,
        "contract": "contracts/SuperfluidStream.sol:SuperfluidStream",
        "label": "s_swapperSwapAmount",
        "offset": 0,
        "slot": "5",
        "type": "t_uint256"
      },
      {
        "astId": 8016,
        "contract": "contracts/SuperfluidStream.sol:SuperfluidStream",
        "label": "s_swapFrom",
        "offset": 0,
        "slot": "6",
        "type": "t_address"
      },
      {
        "astId": 8018,
        "contract": "contracts/SuperfluidStream.sol:SuperfluidStream",
        "label": "s_swapTo",
        "offset": 0,
        "slot": "7",
        "type": "t_address"
      },
      {
        "astId": 8020,
        "contract": "contracts/SuperfluidStream.sol:SuperfluidStream",
        "label": "s_swapTime",
        "offset": 0,
        "slot": "8",
        "type": "t_uint256"
      },
      {
        "astId": 8022,
        "contract": "contracts/SuperfluidStream.sol:SuperfluidStream",
        "label": "s_duration",
        "offset": 0,
        "slot": "9",
        "type": "t_uint256"
      },
      {
        "astId": 8028,
        "contract": "contracts/SuperfluidStream.sol:SuperfluidStream",
        "label": "s_streamCreated",
        "offset": 0,
        "slot": "10",
        "type": "t_mapping(t_address,t_mapping(t_address,t_int96))"
      }
    ],
    "types": {
      "t_address": {
        "encoding": "inplace",
        "label": "address",
        "numberOfBytes": "20"
      },
      "t_contract(IConstantFlowAgreementV1)5062": {
        "encoding": "inplace",
        "label": "contract IConstantFlowAgreementV1",
        "numberOfBytes": "20"
      },
      "t_contract(ISuperfluid)7146": {
        "encoding": "inplace",
        "label": "contract ISuperfluid",
        "numberOfBytes": "20"
      },
      "t_enum(SwapState)7949": {
        "encoding": "inplace",
        "label": "enum SuperfluidStream.SwapState",
        "numberOfBytes": "1"
      },
      "t_int96": {
        "encoding": "inplace",
        "label": "int96",
        "numberOfBytes": "12"
      },
      "t_mapping(t_address,t_int96)": {
        "encoding": "mapping",
        "key": "t_address",
        "label": "mapping(address => int96)",
        "numberOfBytes": "32",
        "value": "t_int96"
      },
      "t_mapping(t_address,t_mapping(t_address,t_int96))": {
        "encoding": "mapping",
        "key": "t_address",
        "label": "mapping(address => mapping(address => int96))",
        "numberOfBytes": "32",
        "value": "t_mapping(t_address,t_int96)"
      },
      "t_struct(InitData)367_storage": {
        "encoding": "inplace",
        "label": "struct CFAv1Library.InitData",
        "members": [
          {
            "astId": 363,
            "contract": "contracts/SuperfluidStream.sol:SuperfluidStream",
            "label": "host",
            "offset": 0,
            "slot": "0",
            "type": "t_contract(ISuperfluid)7146"
          },
          {
            "astId": 366,
            "contract": "contracts/SuperfluidStream.sol:SuperfluidStream",
            "label": "cfa",
            "offset": 0,
            "slot": "1",
            "type": "t_contract(IConstantFlowAgreementV1)5062"
          }
        ],
        "numberOfBytes": "64"
      },
      "t_uint256": {
        "encoding": "inplace",
        "label": "uint256",
        "numberOfBytes": "32"
      }
    }
  }
}